{
  "address": "0x72692B1d166465ac1CFBcE4bDcD86f290f6Ed6c2",
  "abi": [
    {
      "inputs": [],
      "stateMutability": "nonpayable",
      "type": "constructor"
    },
    {
      "inputs": [],
      "name": "AccessControlBadConfirmation",
      "type": "error"
    },
    {
      "inputs": [
        {
          "internalType": "address",
          "name": "account",
          "type": "address"
        },
        {
          "internalType": "bytes32",
          "name": "neededRole",
          "type": "bytes32"
        }
      ],
      "name": "AccessControlUnauthorizedAccount",
      "type": "error"
    },
    {
      "inputs": [
        {
          "internalType": "address",
          "name": "target",
          "type": "address"
        }
      ],
      "name": "AddressEmptyCode",
      "type": "error"
    },
    {
      "inputs": [
        {
          "internalType": "address",
          "name": "implementation",
          "type": "address"
        }
      ],
      "name": "ERC1967InvalidImplementation",
      "type": "error"
    },
    {
      "inputs": [],
      "name": "ERC1967NonPayable",
      "type": "error"
    },
    {
      "inputs": [
        {
          "internalType": "address",
          "name": "spender",
          "type": "address"
        },
        {
          "internalType": "uint256",
          "name": "allowance",
          "type": "uint256"
        },
        {
          "internalType": "uint256",
          "name": "needed",
          "type": "uint256"
        }
      ],
      "name": "ERC20InsufficientAllowance",
      "type": "error"
    },
    {
      "inputs": [
        {
          "internalType": "address",
          "name": "sender",
          "type": "address"
        },
        {
          "internalType": "uint256",
          "name": "balance",
          "type": "uint256"
        },
        {
          "internalType": "uint256",
          "name": "needed",
          "type": "uint256"
        }
      ],
      "name": "ERC20InsufficientBalance",
      "type": "error"
    },
    {
      "inputs": [
        {
          "internalType": "address",
          "name": "approver",
          "type": "address"
        }
      ],
      "name": "ERC20InvalidApprover",
      "type": "error"
    },
    {
      "inputs": [
        {
          "internalType": "address",
          "name": "receiver",
          "type": "address"
        }
      ],
      "name": "ERC20InvalidReceiver",
      "type": "error"
    },
    {
      "inputs": [
        {
          "internalType": "address",
          "name": "sender",
          "type": "address"
        }
      ],
      "name": "ERC20InvalidSender",
      "type": "error"
    },
    {
      "inputs": [
        {
          "internalType": "address",
          "name": "spender",
          "type": "address"
        }
      ],
      "name": "ERC20InvalidSpender",
      "type": "error"
    },
    {
      "inputs": [],
      "name": "FailedCall",
      "type": "error"
    },
    {
      "inputs": [],
      "name": "InvalidInitialization",
      "type": "error"
    },
    {
      "inputs": [],
      "name": "NotInitializing",
      "type": "error"
    },
    {
      "inputs": [],
      "name": "UUPSUnauthorizedCallContext",
      "type": "error"
    },
    {
      "inputs": [
        {
          "internalType": "bytes32",
          "name": "slot",
          "type": "bytes32"
        }
      ],
      "name": "UUPSUnsupportedProxiableUUID",
      "type": "error"
    },
    {
      "anonymous": false,
      "inputs": [
        {
          "indexed": true,
          "internalType": "address",
          "name": "owner",
          "type": "address"
        },
        {
          "indexed": true,
          "internalType": "address",
          "name": "spender",
          "type": "address"
        },
        {
          "indexed": false,
          "internalType": "uint256",
          "name": "value",
          "type": "uint256"
        }
      ],
      "name": "Approval",
      "type": "event"
    },
    {
      "anonymous": false,
      "inputs": [
        {
          "indexed": false,
          "internalType": "uint64",
          "name": "version",
          "type": "uint64"
        }
      ],
      "name": "Initialized",
      "type": "event"
    },
    {
      "anonymous": false,
      "inputs": [
        {
          "indexed": true,
          "internalType": "bytes32",
          "name": "role",
          "type": "bytes32"
        },
        {
          "indexed": true,
          "internalType": "bytes32",
          "name": "previousAdminRole",
          "type": "bytes32"
        },
        {
          "indexed": true,
          "internalType": "bytes32",
          "name": "newAdminRole",
          "type": "bytes32"
        }
      ],
      "name": "RoleAdminChanged",
      "type": "event"
    },
    {
      "anonymous": false,
      "inputs": [
        {
          "indexed": true,
          "internalType": "bytes32",
          "name": "role",
          "type": "bytes32"
        },
        {
          "indexed": true,
          "internalType": "address",
          "name": "account",
          "type": "address"
        },
        {
          "indexed": true,
          "internalType": "address",
          "name": "sender",
          "type": "address"
        }
      ],
      "name": "RoleGranted",
      "type": "event"
    },
    {
      "anonymous": false,
      "inputs": [
        {
          "indexed": true,
          "internalType": "bytes32",
          "name": "role",
          "type": "bytes32"
        },
        {
          "indexed": true,
          "internalType": "address",
          "name": "account",
          "type": "address"
        },
        {
          "indexed": true,
          "internalType": "address",
          "name": "sender",
          "type": "address"
        }
      ],
      "name": "RoleRevoked",
      "type": "event"
    },
    {
      "anonymous": false,
      "inputs": [
        {
          "indexed": true,
          "internalType": "address",
          "name": "from",
          "type": "address"
        },
        {
          "indexed": true,
          "internalType": "address",
          "name": "to",
          "type": "address"
        },
        {
          "indexed": false,
          "internalType": "uint256",
          "name": "value",
          "type": "uint256"
        }
      ],
      "name": "Transfer",
      "type": "event"
    },
    {
      "anonymous": false,
      "inputs": [
        {
          "indexed": true,
          "internalType": "address",
          "name": "implementation",
          "type": "address"
        }
      ],
      "name": "Upgraded",
      "type": "event"
    },
    {
      "inputs": [],
      "name": "BURNER_ROLE",
      "outputs": [
        {
          "internalType": "bytes32",
          "name": "",
          "type": "bytes32"
        }
      ],
      "stateMutability": "view",
      "type": "function"
    },
    {
      "inputs": [],
      "name": "DEFAULT_ADMIN_ROLE",
      "outputs": [
        {
          "internalType": "bytes32",
          "name": "",
          "type": "bytes32"
        }
      ],
      "stateMutability": "view",
      "type": "function"
    },
    {
      "inputs": [],
      "name": "MINTER_ROLE",
      "outputs": [
        {
          "internalType": "bytes32",
          "name": "",
          "type": "bytes32"
        }
      ],
      "stateMutability": "view",
      "type": "function"
    },
    {
      "inputs": [],
      "name": "UPGRADER_ROLE",
      "outputs": [
        {
          "internalType": "bytes32",
          "name": "",
          "type": "bytes32"
        }
      ],
      "stateMutability": "view",
      "type": "function"
    },
    {
      "inputs": [],
      "name": "UPGRADE_INTERFACE_VERSION",
      "outputs": [
        {
          "internalType": "string",
          "name": "",
          "type": "string"
        }
      ],
      "stateMutability": "view",
      "type": "function"
    },
    {
      "inputs": [
        {
          "internalType": "address",
          "name": "owner",
          "type": "address"
        },
        {
          "internalType": "address",
          "name": "spender",
          "type": "address"
        }
      ],
      "name": "allowance",
      "outputs": [
        {
          "internalType": "uint256",
          "name": "",
          "type": "uint256"
        }
      ],
      "stateMutability": "view",
      "type": "function"
    },
    {
      "inputs": [
        {
          "internalType": "address",
          "name": "spender",
          "type": "address"
        },
        {
          "internalType": "uint256",
          "name": "value",
          "type": "uint256"
        }
      ],
      "name": "approve",
      "outputs": [
        {
          "internalType": "bool",
          "name": "",
          "type": "bool"
        }
      ],
      "stateMutability": "nonpayable",
      "type": "function"
    },
    {
      "inputs": [
        {
          "internalType": "address",
          "name": "account",
          "type": "address"
        }
      ],
      "name": "balanceOf",
      "outputs": [
        {
          "internalType": "uint256",
          "name": "",
          "type": "uint256"
        }
      ],
      "stateMutability": "view",
      "type": "function"
    },
    {
      "inputs": [
        {
          "internalType": "address",
          "name": "_from",
          "type": "address"
        },
        {
          "internalType": "uint256",
          "name": "_amount",
          "type": "uint256"
        }
      ],
      "name": "burn",
      "outputs": [
        {
          "internalType": "bool",
          "name": "",
          "type": "bool"
        }
      ],
      "stateMutability": "nonpayable",
      "type": "function"
    },
    {
      "inputs": [],
      "name": "decimals",
      "outputs": [
        {
          "internalType": "uint8",
          "name": "",
          "type": "uint8"
        }
      ],
      "stateMutability": "view",
      "type": "function"
    },
    {
      "inputs": [],
      "name": "getImplementation",
      "outputs": [
        {
          "internalType": "address",
          "name": "",
          "type": "address"
        }
      ],
      "stateMutability": "view",
      "type": "function"
    },
    {
      "inputs": [
        {
          "internalType": "bytes32",
          "name": "role",
          "type": "bytes32"
        }
      ],
      "name": "getRoleAdmin",
      "outputs": [
        {
          "internalType": "bytes32",
          "name": "",
          "type": "bytes32"
        }
      ],
      "stateMutability": "view",
      "type": "function"
    },
    {
      "inputs": [
        {
          "internalType": "bytes32",
          "name": "role",
          "type": "bytes32"
        },
        {
          "internalType": "address",
          "name": "account",
          "type": "address"
        }
      ],
      "name": "grantRole",
      "outputs": [],
      "stateMutability": "nonpayable",
      "type": "function"
    },
    {
      "inputs": [
        {
          "internalType": "bytes32",
          "name": "role",
          "type": "bytes32"
        },
        {
          "internalType": "address",
          "name": "account",
          "type": "address"
        }
      ],
      "name": "hasRole",
      "outputs": [
        {
          "internalType": "bool",
          "name": "",
          "type": "bool"
        }
      ],
      "stateMutability": "view",
      "type": "function"
    },
    {
      "inputs": [
        {
          "internalType": "string",
          "name": "_name",
          "type": "string"
        },
        {
          "internalType": "string",
          "name": "_symbol",
          "type": "string"
        },
        {
          "internalType": "address",
          "name": "_owner",
          "type": "address"
        }
      ],
      "name": "initialize",
      "outputs": [],
      "stateMutability": "nonpayable",
      "type": "function"
    },
    {
      "inputs": [
        {
          "internalType": "address",
          "name": "_to",
          "type": "address"
        },
        {
          "internalType": "uint256",
          "name": "_amount",
          "type": "uint256"
        }
      ],
      "name": "mint",
      "outputs": [
        {
          "internalType": "bool",
          "name": "",
          "type": "bool"
        }
      ],
      "stateMutability": "nonpayable",
      "type": "function"
    },
    {
      "inputs": [],
      "name": "name",
      "outputs": [
        {
          "internalType": "string",
          "name": "",
          "type": "string"
        }
      ],
      "stateMutability": "view",
      "type": "function"
    },
    {
      "inputs": [],
      "name": "proxiableUUID",
      "outputs": [
        {
          "internalType": "bytes32",
          "name": "",
          "type": "bytes32"
        }
      ],
      "stateMutability": "view",
      "type": "function"
    },
    {
      "inputs": [
        {
          "internalType": "bytes32",
          "name": "role",
          "type": "bytes32"
        },
        {
          "internalType": "address",
          "name": "callerConfirmation",
          "type": "address"
        }
      ],
      "name": "renounceRole",
      "outputs": [],
      "stateMutability": "nonpayable",
      "type": "function"
    },
    {
      "inputs": [
        {
          "internalType": "bytes32",
          "name": "role",
          "type": "bytes32"
        },
        {
          "internalType": "address",
          "name": "account",
          "type": "address"
        }
      ],
      "name": "revokeRole",
      "outputs": [],
      "stateMutability": "nonpayable",
      "type": "function"
    },
    {
      "inputs": [
        {
          "internalType": "bytes4",
          "name": "interfaceId",
          "type": "bytes4"
        }
      ],
      "name": "supportsInterface",
      "outputs": [
        {
          "internalType": "bool",
          "name": "",
          "type": "bool"
        }
      ],
      "stateMutability": "view",
      "type": "function"
    },
    {
      "inputs": [],
      "name": "symbol",
      "outputs": [
        {
          "internalType": "string",
          "name": "",
          "type": "string"
        }
      ],
      "stateMutability": "view",
      "type": "function"
    },
    {
      "inputs": [],
      "name": "totalSupply",
      "outputs": [
        {
          "internalType": "uint256",
          "name": "",
          "type": "uint256"
        }
      ],
      "stateMutability": "view",
      "type": "function"
    },
    {
      "inputs": [
        {
          "internalType": "address",
          "name": "to",
          "type": "address"
        },
        {
          "internalType": "uint256",
          "name": "value",
          "type": "uint256"
        }
      ],
      "name": "transfer",
      "outputs": [
        {
          "internalType": "bool",
          "name": "",
          "type": "bool"
        }
      ],
      "stateMutability": "nonpayable",
      "type": "function"
    },
    {
      "inputs": [
        {
          "internalType": "address",
          "name": "from",
          "type": "address"
        },
        {
          "internalType": "address",
          "name": "to",
          "type": "address"
        },
        {
          "internalType": "uint256",
          "name": "value",
          "type": "uint256"
        }
      ],
      "name": "transferFrom",
      "outputs": [
        {
          "internalType": "bool",
          "name": "",
          "type": "bool"
        }
      ],
      "stateMutability": "nonpayable",
      "type": "function"
    },
    {
      "inputs": [
        {
          "internalType": "address",
          "name": "newImplementation",
          "type": "address"
        },
        {
          "internalType": "bytes",
          "name": "data",
          "type": "bytes"
        }
      ],
      "name": "upgradeToAndCall",
      "outputs": [],
      "stateMutability": "payable",
      "type": "function"
    }
  ],
  "transactionHash": "0x41e096bfa388f16216a5aa92267ae6123e4bb9608e3adea468c054430957e37b",
  "args": [],
  "numDeployments": 1,
  "solcInputHash": "2eadb08b6243455e560a9b9c7ca89a12",
  "bytecode": "0x60a06040523060805234801561001457600080fd5b5061001d610022565b6100d4565b7ff0c57e16840df040f15088dc2f81fe391c3923bec73e23a9662efc9c229c6a00805468010000000000000000900460ff16156100725760405163f92ee8a960e01b815260040160405180910390fd5b80546001600160401b03908116146100d15780546001600160401b0319166001600160401b0390811782556040519081527fc7f505b2f371ae2175ee4913f4499e1f2633a7b5936321eed1cdaeb6115181d29060200160405180910390a15b50565b60805161194b6100fd60003960008181610cf501528181610d1e0152610e6f015261194b6000f3fe6080604052600436106101815760003560e01c806352d1902d116100d1578063a9059cbb1161008a578063d539139311610064578063d53913931461048e578063d547741f146104b0578063dd62ed3e146104d0578063f72c0d8b146104f057600080fd5b8063a9059cbb14610410578063aaf10f4214610430578063ad3cb1cc1461045d57600080fd5b806352d1902d1461034e57806370a082311461036357806391d14854146103a657806395d89b41146103c65780639dc29fac146103db578063a217fddf146103fb57600080fd5b8063248a9ca31161013e578063313ce56711610118578063313ce567146102df57806336568abe146102fb57806340c10f191461031b5780634f1ef2861461033b57600080fd5b8063248a9ca31461027d578063282c51f31461029d5780632f2ff15d146102bf57600080fd5b806301ffc9a71461018657806306fdde03146101bb578063077f224a146101dd578063095ea7b3146101ff57806318160ddd1461021f57806323b872dd1461025d575b600080fd5b34801561019257600080fd5b506101a66101a13660046113a6565b610512565b60405190151581526020015b60405180910390f35b3480156101c757600080fd5b506101d0610549565b6040516101b291906113f4565b3480156101e957600080fd5b506101fd6101f83660046114ef565b61060c565b005b34801561020b57600080fd5b506101a661021a366004611563565b6107bd565b34801561022b57600080fd5b507f52c63247e1f47db19d5ce0460030c497f067ca4cebf71ba98eeadabe20bace02545b6040519081526020016101b2565b34801561026957600080fd5b506101a661027836600461158d565b6107d5565b34801561028957600080fd5b5061024f6102983660046115c9565b6107fb565b3480156102a957600080fd5b5061024f60008051602061185683398151915281565b3480156102cb57600080fd5b506101fd6102da3660046115e2565b61081d565b3480156102eb57600080fd5b50604051601281526020016101b2565b34801561030757600080fd5b506101fd6103163660046115e2565b61083f565b34801561032757600080fd5b506101a6610336366004611563565b610877565b6101fd61034936600461160e565b61089b565b34801561035a57600080fd5b5061024f6108ba565b34801561036f57600080fd5b5061024f61037e366004611670565b6001600160a01b03166000908152600080516020611876833981519152602052604090205490565b3480156103b257600080fd5b506101a66103c13660046115e2565b6108d7565b3480156103d257600080fd5b506101d061090f565b3480156103e757600080fd5b506101a66103f6366004611563565b61094e565b34801561040757600080fd5b5061024f600081565b34801561041c57600080fd5b506101a661042b366004611563565b610972565b34801561043c57600080fd5b50610445610980565b6040516001600160a01b0390911681526020016101b2565b34801561046957600080fd5b506101d0604051806040016040528060058152602001640352e302e360dc1b81525081565b34801561049a57600080fd5b5061024f6000805160206118d683398151915281565b3480156104bc57600080fd5b506101fd6104cb3660046115e2565b6109a6565b3480156104dc57600080fd5b5061024f6104eb36600461168b565b6109c2565b3480156104fc57600080fd5b5061024f60008051602061189683398151915281565b60006001600160e01b03198216637965db0b60e01b148061054357506301ffc9a760e01b6001600160e01b03198316145b92915050565b7f52c63247e1f47db19d5ce0460030c497f067ca4cebf71ba98eeadabe20bace03805460609160008051602061187683398151915291610588906116b5565b80601f01602080910402602001604051908101604052809291908181526020018280546105b4906116b5565b80156106015780601f106105d657610100808354040283529160200191610601565b820191906000526020600020905b8154815290600101906020018083116105e457829003601f168201915b505050505091505090565b6000610616610a0c565b805490915060ff600160401b820416159067ffffffffffffffff1660008115801561063e5750825b905060008267ffffffffffffffff16600114801561065b5750303b155b905081158015610669575080155b156106875760405163f92ee8a960e01b815260040160405180910390fd5b845467ffffffffffffffff1916600117855583156106b157845460ff60401b1916600160401b1785555b6106bb8888610a35565b6106c3610a47565b6106cb610a47565b6106d6600087610a51565b506106ef6000805160206118d683398151915287610a51565b5061070860008051602061185683398151915287610a51565b5061072160008051602061189683398151915287610a51565b5061073b6000805160206118d68339815191526000610af6565b6107546000805160206118568339815191526000610af6565b61076d6000805160206118968339815191526000610af6565b83156107b357845460ff60401b19168555604051600181527fc7f505b2f371ae2175ee4913f4499e1f2633a7b5936321eed1cdaeb6115181d29060200160405180910390a15b5050505050505050565b6000336107cb818585610b59565b5060019392505050565b6000336107e3858285610b66565b6107ee858585610bcc565b60019150505b9392505050565b60009081526000805160206118f6833981519152602052604090206001015490565b610826826107fb565b61082f81610c2b565b6108398383610a51565b50505050565b6001600160a01b03811633146108685760405163334bd91960e11b815260040160405180910390fd5b6108728282610c38565b505050565b60006000805160206118d683398151915261089181610c2b565b6107cb8484610cb4565b6108a3610cea565b6108ac82610d8f565b6108b68282610da7565b5050565b60006108c4610e64565b506000805160206118b683398151915290565b60009182526000805160206118f6833981519152602090815260408084206001600160a01b0393909316845291905290205460ff1690565b7f52c63247e1f47db19d5ce0460030c497f067ca4cebf71ba98eeadabe20bace04805460609160008051602061187683398151915291610588906116b5565b600060008051602061185683398151915261096881610c2b565b6107cb8484610ead565b6000336107cb818585610bcc565b60006109a16000805160206118b6833981519152546001600160a01b031690565b905090565b6109af826107fb565b6109b881610c2b565b6108398383610c38565b6001600160a01b0391821660009081527f52c63247e1f47db19d5ce0460030c497f067ca4cebf71ba98eeadabe20bace016020908152604080832093909416825291909152205490565b6000807ff0c57e16840df040f15088dc2f81fe391c3923bec73e23a9662efc9c229c6a00610543565b610a3d610ee3565b6108b68282610f08565b610a4f610ee3565b565b60006000805160206118f6833981519152610a6c84846108d7565b610aec576000848152602082815260408083206001600160a01b03871684529091529020805460ff19166001179055610aa23390565b6001600160a01b0316836001600160a01b0316857f2f8788117e7eff1d82e926ec794901d17c78024a50270940304540a733656f0d60405160405180910390a46001915050610543565b6000915050610543565b6000805160206118f68339815191526000610b10846107fb565b600085815260208490526040808220600101869055519192508491839187917fbd79b86ffe0ab8e8776151514217cd7cacd52c909f66475c3af44e129f0b00ff9190a450505050565b6108728383836001610f59565b6000610b7284846109c2565b90506000198110156108395781811015610bbd57604051637dc7a0d960e11b81526001600160a01b038416600482015260248101829052604481018390526064015b60405180910390fd5b61083984848484036000610f59565b6001600160a01b038316610bf657604051634b637e8f60e11b815260006004820152602401610bb4565b6001600160a01b038216610c205760405163ec442f0560e01b815260006004820152602401610bb4565b610872838383611041565b610c35813361117f565b50565b60006000805160206118f6833981519152610c5384846108d7565b15610aec576000848152602082815260408083206001600160a01b0387168085529252808320805460ff1916905551339287917ff6391f5c32d9c69d2a47ea670b442974b53935d1edc7fd64eb21e047a839171b9190a46001915050610543565b6001600160a01b038216610cde5760405163ec442f0560e01b815260006004820152602401610bb4565b6108b660008383611041565b306001600160a01b037f0000000000000000000000000000000000000000000000000000000000000000161480610d7157507f00000000000000000000000000000000000000000000000000000000000000006001600160a01b0316610d656000805160206118b6833981519152546001600160a01b031690565b6001600160a01b031614155b15610a4f5760405163703e46dd60e11b815260040160405180910390fd5b6000805160206118968339815191526108b681610c2b565b816001600160a01b03166352d1902d6040518163ffffffff1660e01b8152600401602060405180830381865afa925050508015610e01575060408051601f3d908101601f19168201909252610dfe918101906116ef565b60015b610e2957604051634c9c8ce360e01b81526001600160a01b0383166004820152602401610bb4565b6000805160206118b68339815191528114610e5a57604051632a87526960e21b815260048101829052602401610bb4565b61087283836111b8565b306001600160a01b037f00000000000000000000000000000000000000000000000000000000000000001614610a4f5760405163703e46dd60e11b815260040160405180910390fd5b6001600160a01b038216610ed757604051634b637e8f60e11b815260006004820152602401610bb4565b6108b682600083611041565b610eeb61120e565b610a4f57604051631afcd79f60e31b815260040160405180910390fd5b610f10610ee3565b6000805160206118768339815191527f52c63247e1f47db19d5ce0460030c497f067ca4cebf71ba98eeadabe20bace03610f4a8482611758565b50600481016108398382611758565b6000805160206118768339815191526001600160a01b038516610f925760405163e602df0560e01b815260006004820152602401610bb4565b6001600160a01b038416610fbc57604051634a1406b160e11b815260006004820152602401610bb4565b6001600160a01b0380861660009081526001830160209081526040808320938816835292905220839055811561103a57836001600160a01b0316856001600160a01b03167f8c5be1e5ebec7d5bd14f71427d1e84f3dd0314c0f7b2291e5b200ac8c7c3b9258560405161103191815260200190565b60405180910390a35b5050505050565b6000805160206118768339815191526001600160a01b03841661107d57818160020160008282546110729190611818565b909155506110ef9050565b6001600160a01b038416600090815260208290526040902054828110156110d05760405163391434e360e21b81526001600160a01b03861660048201526024810182905260448101849052606401610bb4565b6001600160a01b03851660009081526020839052604090209083900390555b6001600160a01b03831661110d57600281018054839003905561112c565b6001600160a01b03831660009081526020829052604090208054830190555b826001600160a01b0316846001600160a01b03167fddf252ad1be2c89b69c2b068fc378daa952ba7f163c4a11628f55a4df523b3ef8460405161117191815260200190565b60405180910390a350505050565b61118982826108d7565b6108b65760405163e2517d3f60e01b81526001600160a01b038216600482015260248101839052604401610bb4565b6111c182611228565b6040516001600160a01b038316907fbc7cd75a20ee27fd9adebab32041f755214dbc6bffa90cc0225b39da2e5c2d3b90600090a280511561120657610872828261128d565b6108b6611303565b6000611218610a0c565b54600160401b900460ff16919050565b806001600160a01b03163b60000361125e57604051634c9c8ce360e01b81526001600160a01b0382166004820152602401610bb4565b6000805160206118b683398151915280546001600160a01b0319166001600160a01b0392909216919091179055565b6060600080846001600160a01b0316846040516112aa9190611839565b600060405180830381855af49150503d80600081146112e5576040519150601f19603f3d011682016040523d82523d6000602084013e6112ea565b606091505b50915091506112fa858383611322565b95945050505050565b3415610a4f5760405163b398979f60e01b815260040160405180910390fd5b606082611337576113328261137e565b6107f4565b815115801561134e57506001600160a01b0384163b155b1561137757604051639996b31560e01b81526001600160a01b0385166004820152602401610bb4565b50806107f4565b80511561138d57805160208201fd5b60405163d6bda27560e01b815260040160405180910390fd5b6000602082840312156113b857600080fd5b81356001600160e01b0319811681146107f457600080fd5b60005b838110156113eb5781810151838201526020016113d3565b50506000910152565b60208152600082518060208401526114138160408501602087016113d0565b601f01601f19169190910160400192915050565b634e487b7160e01b600052604160045260246000fd5b600067ffffffffffffffff8084111561145857611458611427565b604051601f8501601f19908116603f0116810190828211818310171561148057611480611427565b8160405280935085815286868601111561149957600080fd5b858560208301376000602087830101525050509392505050565b600082601f8301126114c457600080fd5b6107f48383356020850161143d565b80356001600160a01b03811681146114ea57600080fd5b919050565b60008060006060848603121561150457600080fd5b833567ffffffffffffffff8082111561151c57600080fd5b611528878388016114b3565b9450602086013591508082111561153e57600080fd5b5061154b868287016114b3565b92505061155a604085016114d3565b90509250925092565b6000806040838503121561157657600080fd5b61157f836114d3565b946020939093013593505050565b6000806000606084860312156115a257600080fd5b6115ab846114d3565b92506115b9602085016114d3565b9150604084013590509250925092565b6000602082840312156115db57600080fd5b5035919050565b600080604083850312156115f557600080fd5b82359150611605602084016114d3565b90509250929050565b6000806040838503121561162157600080fd5b61162a836114d3565b9150602083013567ffffffffffffffff81111561164657600080fd5b8301601f8101851361165757600080fd5b6116668582356020840161143d565b9150509250929050565b60006020828403121561168257600080fd5b6107f4826114d3565b6000806040838503121561169e57600080fd5b6116a7836114d3565b9150611605602084016114d3565b600181811c908216806116c957607f821691505b6020821081036116e957634e487b7160e01b600052602260045260246000fd5b50919050565b60006020828403121561170157600080fd5b5051919050565b601f821115610872576000816000526020600020601f850160051c810160208610156117315750805b601f850160051c820191505b818110156117505782815560010161173d565b505050505050565b815167ffffffffffffffff81111561177257611772611427565b6117868161178084546116b5565b84611708565b602080601f8311600181146117bb57600084156117a35750858301515b600019600386901b1c1916600185901b178555611750565b600085815260208120601f198616915b828110156117ea578886015182559484019460019091019084016117cb565b50858210156118085787850151600019600388901b60f8161c191681555b5050505050600190811b01905550565b8082018082111561054357634e487b7160e01b600052601160045260246000fd5b6000825161184b8184602087016113d0565b919091019291505056fe3c11d16cbaffd01df69ce1c404f6340ee057498f5f00246190ea54220576a84852c63247e1f47db19d5ce0460030c497f067ca4cebf71ba98eeadabe20bace00189ab7a9244df0848122154315af71fe140f3db0fe014031783b0946b8c9d2e3360894a13ba1a3210667c828492db98dca3e2076cc3735a920a3ca505d382bbc9f2df0fed2c77648de5860a4cc508cd0818c85b8b8a1ab4ceeef8d981c8956a602dd7bc7dec4dceedda775e58dd541e08a116c6c53815c0bd028192f7b626800a2646970667358221220663ce7ffa7d6021ff39a7fcfee617dc0c624144979dbe0b2590493c49d6af60864736f6c63430008160033",
  "devdoc": {
    "errors": {
      "AccessControlBadConfirmation()": [
        {
          "details": "The caller of a function is not the expected one. NOTE: Don't confuse with {AccessControlUnauthorizedAccount}."
        }
      ],
      "AccessControlUnauthorizedAccount(address,bytes32)": [
        {
          "details": "The `account` is missing a role."
        }
      ],
      "AddressEmptyCode(address)": [
        {
          "details": "There's no code at `target` (it is not a contract)."
        }
      ],
      "ERC1967InvalidImplementation(address)": [
        {
          "details": "The `implementation` of the proxy is invalid."
        }
      ],
      "ERC1967NonPayable()": [
        {
          "details": "An upgrade function sees `msg.value > 0` that may be lost."
        }
      ],
      "ERC20InsufficientAllowance(address,uint256,uint256)": [
        {
          "details": "Indicates a failure with the `spender`s `allowance`. Used in transfers.",
          "params": {
            "allowance": "Amount of tokens a `spender` is allowed to operate with.",
            "needed": "Minimum amount required to perform a transfer.",
            "spender": "Address that may be allowed to operate on tokens without being their owner."
          }
        }
      ],
      "ERC20InsufficientBalance(address,uint256,uint256)": [
        {
          "details": "Indicates an error related to the current `balance` of a `sender`. Used in transfers.",
          "params": {
            "balance": "Current balance for the interacting account.",
            "needed": "Minimum amount required to perform a transfer.",
            "sender": "Address whose tokens are being transferred."
          }
        }
      ],
      "ERC20InvalidApprover(address)": [
        {
          "details": "Indicates a failure with the `approver` of a token to be approved. Used in approvals.",
          "params": {
            "approver": "Address initiating an approval operation."
          }
        }
      ],
      "ERC20InvalidReceiver(address)": [
        {
          "details": "Indicates a failure with the token `receiver`. Used in transfers.",
          "params": {
            "receiver": "Address to which tokens are being transferred."
          }
        }
      ],
      "ERC20InvalidSender(address)": [
        {
          "details": "Indicates a failure with the token `sender`. Used in transfers.",
          "params": {
            "sender": "Address whose tokens are being transferred."
          }
        }
      ],
      "ERC20InvalidSpender(address)": [
        {
          "details": "Indicates a failure with the `spender` to be approved. Used in approvals.",
          "params": {
            "spender": "Address that may be allowed to operate on tokens without being their owner."
          }
        }
      ],
      "FailedCall()": [
        {
          "details": "A call to an address target failed. The target may have reverted."
        }
      ],
      "InvalidInitialization()": [
        {
          "details": "The contract is already initialized."
        }
      ],
      "NotInitializing()": [
        {
          "details": "The contract is not initializing."
        }
      ],
      "UUPSUnauthorizedCallContext()": [
        {
          "details": "The call is from an unauthorized context."
        }
      ],
      "UUPSUnsupportedProxiableUUID(bytes32)": [
        {
          "details": "The storage `slot` is unsupported as a UUID."
        }
      ]
    },
    "events": {
      "Approval(address,address,uint256)": {
        "details": "Emitted when the allowance of a `spender` for an `owner` is set by a call to {approve}. `value` is the new allowance."
      },
      "Initialized(uint64)": {
        "details": "Triggered when the contract has been initialized or reinitialized."
      },
      "RoleAdminChanged(bytes32,bytes32,bytes32)": {
        "details": "Emitted when `newAdminRole` is set as ``role``'s admin role, replacing `previousAdminRole` `DEFAULT_ADMIN_ROLE` is the starting admin for all roles, despite {RoleAdminChanged} not being emitted to signal this."
      },
      "RoleGranted(bytes32,address,address)": {
        "details": "Emitted when `account` is granted `role`. `sender` is the account that originated the contract call. This account bears the admin role (for the granted role). Expected in cases where the role was granted using the internal {AccessControl-_grantRole}."
      },
      "RoleRevoked(bytes32,address,address)": {
        "details": "Emitted when `account` is revoked `role`. `sender` is the account that originated the contract call:   - if using `revokeRole`, it is the admin role bearer   - if using `renounceRole`, it is the role bearer (i.e. `account`)"
      },
      "Transfer(address,address,uint256)": {
        "details": "Emitted when `value` tokens are moved from one account (`from`) to another (`to`). Note that `value` may be zero."
      },
      "Upgraded(address)": {
        "details": "Emitted when the implementation is upgraded."
      }
    },
    "kind": "dev",
    "methods": {
      "allowance(address,address)": {
        "details": "Returns the remaining number of tokens that `spender` will be allowed to spend on behalf of `owner` through {transferFrom}. This is zero by default. This value changes when {approve} or {transferFrom} are called."
      },
      "approve(address,uint256)": {
        "details": "See {IERC20-approve}. NOTE: If `value` is the maximum `uint256`, the allowance is not updated on `transferFrom`. This is semantically equivalent to an infinite approval. Requirements: - `spender` cannot be the zero address."
      },
      "balanceOf(address)": {
        "details": "Returns the value of tokens owned by `account`."
      },
      "burn(address,uint256)": {
        "params": {
          "_amount": "The amount of tokens to burn.",
          "_from": "The address from which tokens will be burned."
        },
        "returns": {
          "_0": "A boolean indicating the success of the burn operation."
        }
      },
      "decimals()": {
        "details": "Returns the number of decimals used to get its user representation. For example, if `decimals` equals `2`, a balance of `505` tokens should be displayed to a user as `5.05` (`505 / 10 ** 2`). Tokens usually opt for a value of 18, imitating the relationship between Ether and Wei. This is the default value returned by this function, unless it's overridden. NOTE: This information is only used for _display_ purposes: it in no way affects any of the arithmetic of the contract, including {IERC20-balanceOf} and {IERC20-transfer}."
      },
      "getRoleAdmin(bytes32)": {
        "details": "Returns the admin role that controls `role`. See {grantRole} and {revokeRole}. To change a role's admin, use {_setRoleAdmin}."
      },
      "grantRole(bytes32,address)": {
        "details": "Grants `role` to `account`. If `account` had not been already granted `role`, emits a {RoleGranted} event. Requirements: - the caller must have ``role``'s admin role. May emit a {RoleGranted} event."
      },
      "hasRole(bytes32,address)": {
        "details": "Returns `true` if `account` has been granted `role`."
      },
      "mint(address,uint256)": {
        "params": {
          "_amount": "The amount of tokens to mint.",
          "_to": "The address to which tokens will be minted."
        },
        "returns": {
          "_0": "A boolean indicating the success of the mint operation."
        }
      },
      "name()": {
        "details": "Returns the name of the token."
      },
      "proxiableUUID()": {
        "details": "Implementation of the ERC-1822 {proxiableUUID} function. This returns the storage slot used by the implementation. It is used to validate the implementation's compatibility when performing an upgrade. IMPORTANT: A proxy pointing at a proxiable contract should not be considered proxiable itself, because this risks bricking a proxy that upgrades to it, by delegating to itself until out of gas. Thus it is critical that this function revert if invoked through a proxy. This is guaranteed by the `notDelegated` modifier."
      },
      "renounceRole(bytes32,address)": {
        "details": "Revokes `role` from the calling account. Roles are often managed via {grantRole} and {revokeRole}: this function's purpose is to provide a mechanism for accounts to lose their privileges if they are compromised (such as when a trusted device is misplaced). If the calling account had been revoked `role`, emits a {RoleRevoked} event. Requirements: - the caller must be `callerConfirmation`. May emit a {RoleRevoked} event."
      },
      "revokeRole(bytes32,address)": {
        "details": "Revokes `role` from `account`. If `account` had been granted `role`, emits a {RoleRevoked} event. Requirements: - the caller must have ``role``'s admin role. May emit a {RoleRevoked} event."
      },
      "supportsInterface(bytes4)": {
        "details": "Returns true if this contract implements the interface defined by `interfaceId`. See the corresponding https://eips.ethereum.org/EIPS/eip-165#how-interfaces-are-identified[ERC section] to learn more about how these ids are created. This function call must use less than 30 000 gas."
      },
      "symbol()": {
        "details": "Returns the symbol of the token, usually a shorter version of the name."
      },
      "totalSupply()": {
        "details": "Returns the value of tokens in existence."
      },
      "transfer(address,uint256)": {
        "details": "See {IERC20-transfer}. Requirements: - `to` cannot be the zero address. - the caller must have a balance of at least `value`."
      },
      "transferFrom(address,address,uint256)": {
        "details": "See {IERC20-transferFrom}. Skips emitting an {Approval} event indicating an allowance update. This is not required by the ERC. See {xref-ERC20-_approve-address-address-uint256-bool-}[_approve]. NOTE: Does not update the allowance if the current allowance is the maximum `uint256`. Requirements: - `from` and `to` cannot be the zero address. - `from` must have a balance of at least `value`. - the caller must have allowance for ``from``'s tokens of at least `value`."
      },
      "upgradeToAndCall(address,bytes)": {
        "custom:oz-upgrades-unsafe-allow-reachable": "delegatecall",
        "details": "Upgrade the implementation of the proxy to `newImplementation`, and subsequently execute the function call encoded in `data`. Calls {_authorizeUpgrade}. Emits an {Upgraded} event."
      }
    },
    "version": 1
  },
  "userdoc": {
    "kind": "user",
    "methods": {
      "burn(address,uint256)": {
        "notice": "Burns a specific amount of tokens from a given address."
      },
      "getImplementation()": {
        "notice": "Returns the contract's current implementation address."
      },
      "mint(address,uint256)": {
        "notice": "Mints a specific amount of tokens to a given address."
      }
    },
    "version": 1
  },
  "storageLayout": {
    "storage": [],
    "types": null
  }
}